:020000040000FA
:0400000007EF00F016
:1000080007826DED00F03AEF00F024EC00F00150AB
:100018000210D8B412EF00F014EF00F00BEF00F06C
:100028004DEC00F083805DEC00F04DEC00F0839027
:10003800000E026E000E016E0BEF00F007EF00F0ED
:10004800000E806E000E816E000E826E000E836EB2
:10005800400E926E000E936E000E946E000E956E1A
:10006800D09EA00EF26E860ED56E1200F80EF66EB9
:10007800000EF76E000EF86E0900F5CF03F00900C8
:10008800F5CF04F0026A016A07900792000109EFB0
:1000980000F08290828282848298040E066E2C0E72
:1000A800056EAC0EE82EFED7052EFCD7062EFAD725
:1000B80012008290829282848288040E066E2C0E30
:1000C800056EAC0EE82EFED7052EFCD7062EFAD705
:1000D80012000600F2A473EF00F075EF00F07AEF5B
:1000E80000F0F294000E026E010E016E07921100EC
:0200F8007D0089
:020000040020DA
:08000000FFFFFFFFFFFFFFFF00
:020000040030CA
:0E00000000051F1FFF8385FF0FC00FE00F409C
:00000001FF
